:030000000201B347
:0C01B300787FE4F6D8FD75813E0201FA69
:10047700122CC0F9A4B0999282F880908880C6C0E7
:10048700868EBF7F0122010129000125000121007D
:09049700012B14013E1E0128FF97
:1003AC008D8053A01FEF24FB601414601B1460227B
:1003BC0024037026E5A0541F4480F5A0801CE5A002
:1003CC00541F44A0F5A08012E5A0541F44C0F5A012
:0E03DC008008E5A0541F44E0F5A053A01F22A6
:040581007FC87E00B1
:0B058500EF1FAC0670011E4C70F62248
:0B03660075F00A84742C25F0F8E6FD09
:10037100AB07AE057401A803088002C333D8FCFDA6
:100381007F061203ACAD060F1203AC7FF47E01129F
:100391000585AF037401A807088002C333D8FCFDAB
:0B03A1007F061203AC7DFF0F0203ACCF
:0B05D3007DFF7F061203AC0F0203AC9B
:10000E00E52224FE603E1470030200D62402600333
:10001E00020113AE23AF247C007D0A1202CA742C97
:10002E002DF8E6FD7F07120371AE23AF247C007D11
:10003E000A1202CA742C2FF8E6FD7F061203717D98
:10004E00C60200CEE52170047F0180027F00E52903
:10005E0070047E0180027E00EE5FFFE521B4010494
:10006E007E0180027E00EE4F6017E52B7F071203A4
:10007E0066E52B75F00A84242CF8E6FD7F06120344
:10008E0071E521B401047F0180027F00E52970042F
:10009E007E0180027E00EE5FFFE52170047E01800E
:1000AE00027E00EE4F6017E53E7F04120366E53ECA
:1000BE0075F00A84242CF8E6FD7F031203717D8C03
:1000CE00E4FF1203710205D3AE26AF277C007D0537
:1000DE001202B87DFF1202CA742C2FF8E6FD7F07BC
:1000EE00120371AE26AF277C007D051202B87DFF8C
:1000FE001202CA742C2FF8E6FD7F061203717DC121
:06010E00E4FF1203712260
:0D05AE00758CEF758AD8D2A9D2AFD28C22FD
:03000B0002044D9F
:10044D00C0E0C0D0758CEF758AD80525E525B4645C
:10045D0014752500E52970057529018008E529B475
:0A046D000103752900D0D0D0E03261
:10031F001204A17FCC1204ED7F441204ED7FDC7E2A
:10032F00051205851204A17FCC1204ED7FBE1204C5
:10033F00ED1205287508008F09120528EF4508FEF4
:10034F00E509FFEE20E70FC4F854F0C868F523EF76
:06035F00C4540F48F52410
:010365002275
:1004C8008F081205907F901204211205707F401248
:1004D8000421120570AF08120421120570C200121F
:0504E80005590205C7E3
:1003EA001205907F901204211205707F4312042196
:1003FA001205701205C712000E1205907F911204A1
:10040A002112057012050B7526008F27120570C27E
:07041A00001205590205C79D
:10023F00D3E524953EE523940040107528FF5328FD
:10024F00FE752A047FCC1204C88056D3E524953E50
:10025F00E523940050047F0180027F00E52BD395A6
:10026F0024E4952350047E0180027E00EE5F60102F
:10027F007528FF752A037F991204C85328FD802122
:10028F00C3E524952BE523940050107528FF5328C0
:10029F00FB752A027F661204C880067528FF532853
:0902AF007FAD287F041203AC228C
:1001140020B32012058120B31AE522B4010575220B
:1001240002800DE522B402057522038003752201C5
:1001340030B3FD20B21A12058120B214E5217005F6
:100144007521018008E521B40103E4F52130B2FDF5
:1001540020B12C12058120B126E521B4010E053E03
:10016400E53ED394634015753E1E8010E521700C66
:10017400052BE53EC3952B5003752B1430B1FD20A0
:10018400B02C12058120B026E521B4010E153EE500
:100194003EC3952B5015753E1E8010E521700C153D
:0F01A4002BE52BC394005003752B1430B0FD22B4
:100542001205D31205AE12031F12023F1203EA1262
:07055200000E12011480EFFE
:0405BB00D2A07F0546
:0805BF0000AE071FEE70F922E7
:0F059000D2A11205BBC2A17F051205BFC2A022D6
:0C05C700C2A11205BBD2A17F050205BF36
:10055900C2A0A20092A17F051205BF1205BBC2A0CD
:07056900D2A17F050205BFCE
:100570001205BBA2A19200C2A07F051205BFA20076
:010580002258
:02042100AD0725
:10042300E4FCC2A07F051205BFED30E704D2A18032
:1004330002C2A17F051205BFD2A0ED25E0FD7F0515
:090443001205BF0CBC08DBC2A0CD
:01044C00228D
:10050B00E4FC1205BBED25E0FD30A103430501C260
:0C051B00A07F051205BF0CBC08E8AF056E
:0105270022B1
:04059F007F327E0029
:0B05A300EF1FAC0670011E4C70F6222A
:0204ED00AD0759
:1004EF00E4FBC294ED13929412059FD294EDC313C3
:0C04FF00FD0BBB08ED7F327E000205A360
:10052800E4FBC294EDC313FDD294309403430580D9
:0905380012059F0BBB08EBAF0597
:010541002297
:1004A100C200D2947F787E001205A3C2947F207E81
:1004B100031205A3D2947F647E001205A3A2949235
:0604C1000012059FA200DD
:0104C7002212
:1001BF00020542E493A3F8E493A34003F68001F20F
:1001CF0008DFF48029E493A3F85407240CC8C33341
:1001DF00C4540F4420C8834004F456800146F6DF10
:1001EF00E4800B0102040810204080900477E47E25
:1001FF00019360BCA3FF543F30E509541FFEE49305
:10020F00A360010ECF54C025E060A840B8E493A3CB
:10021F00FAE493A3F8E493A3C8C582C8CAC583CAF6
:10022F00F0A3C8C582C8CAC583CADFE9DEE780BEAE
:0104A000005B
:1002B800EF8DF0A4A8F0CF8CF0A428CE8DF0A42E5A
:0202C800FE2214
:1002CA00BC000BBE0029EF8DF084FFADF022E4CC18
:1002DA00F875F008EF2FFFEE33FEEC33FCEE9DECE1
:1002EA00984005FCEE9DFE0FD5F0E9E4CEFD22ED27
:1002FA00F8F5F0EE8420D21CFEADF075F008EF2F71
:10030A00FFED33FD4007985006D5F0F222C398FD61
:05031A000FD5F0EA22FE
:00000001FF
